:020000040800F2
:10000000005000205D3F00081D190008211900085C
:1000100025190008291900082D1900080000000002
:10002000000000000000000000000000311900087E
:100030003519000800000000391900083D190008B2
:10004000A53F0008A53F0008A53F0008A53F000800
:10005000A53F0008A53F0008A53F0008A53F0008F0
:10006000A53F0008A53F0008A53F0008A53F0008E0
:10007000A53F0008A53F0008A53F0008A53F0008D0
:10008000A53F0008A53F0008A53F0008A53F0008C0
:10009000A53F0008A53F0008A53F0008A53F0008B0
:1000A000A53F0008A53F0008A53F0008A53F0008A0
:1000B000A53F0008A53F0008A53F0008A53F000890
:1000C000A53F0008A53F0008A53F0008A53F000880
:1000D000A53F0008A53F0008A53F0008A53F000870
:1000E000A53F0008A53F0008A53F0008000000004C
:1000F0000000000000000000000000000000000000
:0C01000000000000000000005FF808F1A3
:10011000044B05481B1A062B02D9044B03B11847A0
:10012000704700BF83000020800000200000000016
:1001300005490648091A891001EBD171491002D00E
:10014000034B03B118477047800000208000002057
:100150000000000010B5064C237843B9FFF7D8FF24
:10016000044B13B10448AFF300800123237010BD8A
:1001700080000020000000004848000808B5084B37
:100180001BB108480849AFF300800848036813B959
:10019000BDE80840CCE7064B002BF9D09847F7E7BD
:1001A0000000000048480008840000208000002073
:1001B0000000000081F0004102E000BF83F0004336
:1001C00030B54FEA41044FEA430594EA050F08BFF2
:1001D00090EA020F1FBF54EA000C55EA020C7FEAB6
:1001E000645C7FEA655C00F0E2804FEA5454D4EB33
:1001F0005555B8BF6D420CDD2C4480EA020281EAFD
:10020000030382EA000083EA010180EA020281EA34
:100210000303362D88BF30BD11F0004F4FEA013186
:100220004FF4801C4CEA113102D0404261EB410195
:1002300013F0004F4FEA03334CEA133302D052421B
:1002400063EB430394EA050F00F0A780A4F10104D7
:10025000D5F1200E0DDB02FA0EFC22FA05F2801811
:1002600041F1000103FA0EF2801843FA05F35941F7
:100270000EE0A5F120050EF1200E012A03FA0EFC76
:1002800028BF4CF0020C43FA05F3C01851EBE371A0
:1002900001F0004507D54FF0000EDCF1000C7EEBBD
:1002A00000006EEB0101B1F5801F1BD3B1F5001FFB
:1002B0000CD349085FEA30004FEA3C0C04F101041A
:1002C0004FEA445212F5800F80F09A80BCF1004F43
:1002D00008BF5FEA500C50F1000041EB045141EAC5
:1002E000050130BD5FEA4C0C404141EB010111F4C6
:1002F000801FA4F10104E9D191F0000F04BF014671
:100300000020B1FA81F308BF2033A3F10B03B3F14E
:1003100020020CDA0C3208DD02F1140CC2F10C02DE
:1003200001FA0CF021FA02F10CE002F11402D8BF3C
:10033000C2F1200C01FA02F120FA0CFCDCBF41EA08
:100340000C019040E41AA2BF01EB0451294330BDD7
:100350006FEA04041F3C1CDA0C340EDC04F11404B4
:10036000C4F1200220FA04F001FA02F340EA03008B
:1003700021FA04F345EA030130BDC4F10C04C4F1D1
:10038000200220FA02F001FA04F340EA03002946B1
:1003900030BD21FA04F0294630BD94F0000F83F4FB
:1003A000801306BF81F480110134013D4EE77FEADE
:1003B000645C18BF7FEA655C29D094EA050F08BF2A
:1003C00090EA020F05D054EA000C04BF194610460B
:1003D00030BD91EA030F1EBF0021002030BD5FEA4F
:1003E000545C05D14000494128BF41F0004130BD77
:1003F00014F580043CBF01F5801130BD01F00045CB
:1004000045F0FE4141F470014FF0000030BD7FEA3D
:10041000645C1ABF194610467FEA655C1CBF0B4638
:10042000024650EA013406BF52EA033591EA030F4F
:1004300041F4002130BD00BF90F0000F04BF002147
:10044000704730B54FF4806404F132044FF000057A
:100450004FF0000150E700BF90F0000F04BF0021F3
:10046000704730B54FF4806404F1320410F0004559
:1004700048BF40424FF000013EE700BF42004FEA54
:10048000E2014FEA31014FEA02701FBF12F07F43D1
:1004900093F07F4F81F06051704792F0000F14BFCE
:1004A00093F07F4F704730B54FF4607401F0004512
:1004B00021F0004120E700BF50EA010208BF704769
:1004C00030B54FF000050AE050EA010208BF70475E
:1004D00030B511F0004502D5404261EB41014FF4C7
:1004E000806404F132045FEA915C3FF4DCAE4FF0CB
:1004F00003025FEADC0C18BF03325FEADC0C18BFB2
:10050000033202EBDC02C2F1200300FA03FC20FA02
:1005100002F001FA03FE40EA0E0021FA02F114444F
:10052000C1E600BF70B54FF0FF0C4CF4E06C1CEA64
:1005300011541DBF1CEA135594EA0C0F95EA0C0FD9
:1005400000F0DEF82C4481EA030621EA4C5123EA4C
:100550004C5350EA013518BF52EA033541F480117B
:1005600043F4801338D0A0FB02CE4FF00005E1FB2E
:1005700002E506F00042E0FB03E54FF00006E1FB78
:1005800003569CF0000F18BF4EF0010EA4F1FF04BB
:10059000B6F5007F64F5407404D25FEA4E0E6D41FB
:1005A00046EB060642EAC62141EA55514FEAC5200C
:1005B00040EA5E504FEACE2EB4F1FD0C88BFBCF588
:1005C000E06F1ED8BEF1004F08BF5FEA500E50F139
:1005D000000041EB045170BD06F0004646EA0101FF
:1005E00040EA020081EA0301B4EB5C04C2BFD4EB31
:1005F0000C0541EA045170BD41F480114FF0000E2A
:10060000013C00F3AB8014F1360FDEBF002001F097
:10061000004170BDC4F10004203C35DA0C341BDC11
:1006200004F11404C4F1200500FA05F320FA04F0E3
:1006300001FA05F240EA020001F0004221F0004117
:1006400010EBD37021FA04F642EB06015EEA430E8A
:1006500008BF20EAD37070BDC4F10C04C4F12005BA
:1006600000FA04F320FA05F001FA04F240EA02006D
:1006700001F0004110EBD37041F100015EEA430E3E
:1006800008BF20EAD37070BDC4F1200500FA05F25E
:100690004EEA020E20FA04F301FA05F243EA0203DD
:1006A00021FA04F001F0004121FA04F220EA0200EC
:1006B00000EBD3705EEA430E08BF20EAD37070BD32
:1006C00094F0000F0FD101F00046400041EB010112
:1006D00011F4801F08BF013CF7D041EA060195F0F4
:1006E000000F18BF704703F00046520043EB0303AE
:1006F00013F4801F08BF013DF7D043EA060370479B
:1007000094EA0C0F0CEA135518BF95EA0C0F0CD0A5
:1007100050EA410618BF52EA4306D1D181EA0301EB
:1007200001F000414FF0000070BD50EA410606BFE5
:100730001046194652EA430619D094EA0C0F02D12A
:1007400050EA013613D195EA0C0F05D152EA03366F
:100750001CBF104619460AD181EA030101F000418D
:1007600041F0FE4141F470014FF0000070BD41F0D6
:10077000FE4141F4780170BD70B54FF0FF0C4CF4B0
:10078000E06C1CEA11541DBF1CEA135594EA0C0FCF
:1007900095EA0C0F00F0A7F8A4EB050481EA030E1C
:1007A00052EA03354FEA013100F088804FEA033303
:1007B0004FF0805545EA131343EA12634FEA0222D1
:1007C00045EA111545EA10654FEA00260EF0004192
:1007D0009D4208BF964244F1FD0404F5407402D2E4
:1007E0005B084FEA3202B61A65EB03055B084FEA75
:1007F00032024FF480104FF4002CB6EB020E75EB72
:10080000030E22BFB61A754640EA0C005B084FEA99
:100810003202B6EB020E75EB030E22BFB61A754616
:1008200040EA5C005B084FEA3202B6EB020E75EB61
:10083000030E22BFB61A754640EA9C005B084FEAD9
:100840003202B6EB020E75EB030E22BFB61A7546E6
:1008500040EADC0055EA060E18D04FEA051545EAD5
:1008600016754FEA06164FEAC30343EA52734FEA7E
:10087000C2025FEA1C1CC0D111F4801F0BD141EAF7
:1008800000014FF000004FF0004CB6E711F4801F5C
:1008900004BF01430020B4F1FD0C88BFBCF5E06F3C
:1008A0003FF6AFAEB5EB030C04BFB6EB020C5FEA4C
:1008B000500C50F1000041EB045170BD0EF0004EA1
:1008C0004EEA113114EB5C04C2BFD4EB0C0541EAD3
:1008D000045170BD41F480114FF0000E013C90E6D0
:1008E00045EA060E8DE60CEA135594EA0C0F08BF94
:1008F00095EA0C0F3FF43BAF94EA0C0F0AD150EA93
:1009000001347FF434AF95EA0C0F7FF425AF104625
:1009100019462CE795EA0C0F06D152EA03353FF44D
:10092000FDAE1046194622E750EA410618BF52EACA
:1009300043067FF4C5AE50EA41047FF40DAF52EA9E
:1009400043057FF4EBAE12E74FF0FF3C06E000BF3B
:100950004FF0010C02E000BF4FF0010C4DF804CD48
:100960004FEA410C7FEA6C5C4FEA430C18BF7FEA08
:100970006C5C1BD001B050EA410C0CBF52EA430C36
:1009800091EA030F02BF90EA020F0020704710F1B6
:10099000000F91EA030F58BF994208BF90422CBF45
:1009A000D8176FEAE37040F0010070474FEA410C3E
:1009B0007FEA6C5C02D150EA013C07D14FEA430C5C
:1009C0007FEA6C5CD6D152EA033CD3D05DF8040BCD
:1009D000704700BF8446104662468C4619466346FF
:1009E00000E000BF01B5FFF7B7FF002848BF10F1D6
:1009F000000F01BD4DF808EDFFF7F4FF0CBF01201B
:100A000000205DF808FB00BF4DF808EDFFF7EAFF96
:100A100034BF012000205DF808FB00BF4DF808ED51
:100A2000FFF7E0FF94BF012000205DF808FB00BF46
:100A30004DF808EDFFF7CEFF94BF012000205DF8D0
:100A400008FB00BF4DF808EDFFF7C4FF34BF0120DD
:100A500000205DF808FB00BF4FEA410212F50012CA
:100A600015D211D56FF47873B3EB625212D94FEAF5
:100A7000C12343F0004343EA505311F0004F23FADF
:100A800002F018BF404270474FF00000704750EA34
:100A9000013005D111F0004008BF6FF000407047F1
:100AA0004FF00000704700BF074B9B6813F0020F28
:100AB000FAD0054BD860044B9B6813F0010FFAD0B5
:100AC000014BD868C0B2704700300140FEE700BF5C
:100AD00000B595B009230A934FF480330B934FF47C
:100AE00000320C9201220E92109202221192129365
:100AF000002313930AA802F06BFC20B11D4840F2BA
:100B00009511FFF7E3FF0F2305930223069390232C
:100B1000079300210891099105A802F091FE20B1E8
:100B2000144840F2A311FFF7D1FF032301934FF4C0
:100B3000007302930023039301A802F069FF20B120
:100B40000C4840F2AB11FFF7C1FF02F03BFF0A4B2C
:100B5000A3FB0030800903F0A9F9042003F0BCF9DD
:100B60004FF0FF3000210A4603F06EF915B05DF832
:100B700004FB00BF88480008D34D6210000000004D
:100B80002DE9F047E2B002F0D5FBFFF7A1FF00F03E
:100B900095FA00F0F7FB00F06DFB00F08BFB00F026
:100BA00029FCD14A136843F04003136000F046FC6F
:100BB000CE4A136843F04003136000F017FE00F0C4
:100BC000C3FA00F0EFFA00F0ADFD00F0AFFC00F06A
:100BD000E1FC00F013FD00F027FEC5484FF4005182
:100BE000002203F015F900F04BFF4FF47A7002F089
:100BF000C5FB012000F00CFF00F01AFF4FF47A70E3
:100C000002F0BCFB002000F003FF00F011FF4FF4E6
:100C10007A7002F0B3FB0020014601F02DF8B54CCC
:100C2000B54894E80600012301F00CF800201E21CD
:100C300001F022F8B14894E80600012301F002F81F
:100C400000F0F6FEAE4C4FF4801323611E20FFF738
:100C50002BFF10232361032002F090FB01241CE0F2
:100C6000A74E4FF480133361E0B24000603800F0CB
:100C7000FE00FFF719FF5520FFF716FF0CAF00022B
:100C800000F47F4527F814505520FFF70DFF284446
:100C900027F81400102333610134062CE0DD4FF4F3
:100CA0007A7002F06BFB002000F0B2FE00F0C0FE94
:100CB0004FF0000846461FE0914D4FF480142C6120
:100CC0004420FFF7F1FE10272F61032002F056FBAE
:100CD0002C610020FFF7E8FE5520FFF7E5FE040237
:100CE0005520FFF7E1FE204404025520FFF7DCFE0B
:100CF00020442F6180440136632EDDDD814BA3FB50
:100D000008384FEA581A7E4D4FF480142C61542055
:100D1000FFF7CAFE10262E61032002F02FFB2C6184
:100D20000020FFF7C1FE5520FFF7BEFE040255204C
:100D3000FFF7BAFE204404025520FFF7B5FE2E61EE
:100D40002044FFF779FB04460D46BDF83A00FFF753
:100D500073FB00226C4BFFF7E5FB02460B46204677
:100D60002946FFF72BFA04460D46BDF83C00FFF775
:100D700063FB22462B46FFF7D5FB00224FF07A5348
:100D8000FFF7D0FB0022614BFFF71AFA8046894635
:100D9000BDF83400FFF750FB00225D4BFFF7C2FBAC
:100DA00006460F46BDF83800FFF746FB22462B46A5
:100DB000FFF7B8FB0022574BFFF7B4FB02460B4688
:100DC00030463946FFF7FCF9CDE90801BDF832009D
:100DD000FFF732FB00224FF08243FFF7A3FB0646EA
:100DE0000F46BDF83600FFF727FB22462B46FFF7DC
:100DF00099FB00224FF07E53FFF794FB02460B460F
:100E000030463946FFF7DCF9CDE90A01404649464C
:100E100000223E4BFFF70CFE002840F08380204666
:100E2000294600223C4BFFF77DFB22462B46FFF76D
:100E300079FB0022394BFFF775FBCDE906014046EF
:100E400049460022314BFFF7B9F904460D4600220E
:100E5000314BFFF767FB22462B46FFF763FB00226F
:100E60004FF07F53FFF75EFB06460F4620462946AC
:100E700000222B4BFFF756FB22462B46FFF752FB77
:100E800000224FF07F53FFF74DFBCDE904014046B0
:100E9000494611A3D3E90023FFF7B6FD002847D048
:100EA000404649460EA3D3E90023FFF789F90446DB
:100EB0000D460022184BFFF735FB22462B46FFF765
:100EC00031FB02460B46DDE90401FFF779F9CDE974
:100ED00004012DE0AFF3008000000000007097C017
:100EE00000000000007097400030014000380040D2
:100EF0000010014008000020944800089C480008A9
:100F0000000801401F85EB510000704000409F40E9
:100F1000000010410000A03F000008400000E03D3C
:100F200000001C4000260027CDE90467CDE90667D4
:100F300040464946DDE90623FFF740F904460D46E1
:100F4000DDE9080132463B46FFF738F9804689461D
:100F5000DDE90A01DDE90423FFF730F906460F4613
:100F60005046FFF769FA32463B46FFF7DBFA0022AC
:100F7000484BFFF7D7FA42464B46FFF71FF90022CE
:100F80004FF07C53FFF7CEFA80468946424E3046FA
:100F900011A9012201F0CCFB304610A9012201F079
:100FA0004DFC9DF842209DF841309DF843709DF81E
:100FB00044609DF845009DF8461000970196029008
:100FC000039112A8354903F015F812A803F036F87A
:100FD000334F82B2384612A94FF4FA7302F014F973
:100FE00040464946FFF738FD064620462946FFF7AA
:100FF00033FD054622A82B4932462B4602F0FAFF64
:1010000022A803F01BF882B2384622A94FF4FA73E3
:1010100002F0FAF80020014600F02EFE9DF8442070
:101020009DF845309DF84610009112A81E4902F027
:10103000E1FF1E4C12A894E80600012300F002FE16
:101040000020162100F018FE22A81949324602F0AD
:10105000D1FF22A894E80600012300F0F3FD002050
:101060002C2100F009FE22A812492A4602F0C2FFF4
:1010700022A894E80600012300F0E4FD00F0D8FC6B
:101080000D484FF4005102F0C9FE642002F076F9D9
:101090000EE600BF0000A03EB8050020A4480008EE
:1010A0007C070020C8480008E44800080000002031
:1010B000F4480008FC4800080010014070B588B0F2
:1010C0001E4B9A6942F010029A619A6902F010026E
:1010D0000092009A9A6942F020029A619A6902F09D
:1010E00020020192019A9A6942F004029A619A6977
:1010F00002F004020292029A9A6942F008029A618E
:101100009B6903F008030393039B102304930126B8
:101110000596002506950224079409480DEB030166
:1011200002F084FD4FF4005304930596069507944E
:10113000044804A902F07AFD08B070BD0010024016
:10114000000801400010014000B585B01248134B63
:10115000036000238360C36043614FF46022C26177
:1011600043600123036100F04BFE18B10C48442199
:10117000FFF7ACFC0023019301220292039306487F
:1011800001A900F07FFD18B105484E21FFF79EFC34
:1011900005B05DF804FB00BFE0040020002401401E
:1011A0000449000800B585B01248134B03600023C2
:1011B0008360C36043614FF46022C26143600123D6
:1011C000036100F01DFE18B10C486221FFF77EFCA0
:1011D00001230193029300230393064801A900F021
:1011E00051FD18B105486C21FFF770FC05B05DF8A2
:1011F00004FB00BFB004002000280140044900089F
:1012000000B587B00368174A934212D1164B9A690A
:1012100042F400729A619B6903F400730093009B8F
:101220000123029303230393104802A902F0FEFC5A
:1012300014E00F4A934211D10B4B9A6942F4806239
:101240009A619B6903F480630193019B02230293DB
:1012500003230393054802A902F0E8FC07B05DF8F8
:1012600004FB00BF002401400010024000080140C0
:101270000028014008B50B480B4B03600B4B436043
:1012800000238360C3604FF4804202614361836145
:10129000C361036200F088FF18B105484321FFF7DE
:1012A00015FC08BD1005002000540040A086010078
:1012B0001049000808B50B480B4B03600B4B43600B
:1012C00000238360C3604FF4804202614361836105
:1012D000C361036200F068FF18B105485621FFF7AB
:1012E000F5FB08BD6405002000580040A086010001
:1012F0001049000800B587B003681D4A93421CD10D
:101300004FF4407302931223039303230593194868
:1013100002A902F08BFC184A536843F0E06343F0E3
:1013200002035360154BDA6942F40012DA61DB699B
:1013300003F400130093009B17E0114A934214D169
:101340004FF4406302931223039303230593094848
:1013500002A902F06BFC094BDA6942F48002DA61FF
:10136000DB6903F480030193019B07B05DF804FB84
:1013700000540040000C01400000014000100240F9
:101380000058004008B50848084B03604FF0FF3391
:1013900043604FF48073836001F0A2FA18B10448EF
:1013A0003F21FFF793FB08BDB8050020002800404F
:1013B0001C49000802680C4B9A4213D100B583B057
:1013C00002F0A0FD094BDA6942F00062DA61DB69E4
:1013D00003F000630193019B0122054B1A6003B0E7
:1013E0005DF804FB704700BF002800400010024079
:1013F0003C04424208B50E480E4B03604FF4827322
:10140000436000238360C360036143614FF4007253
:101410008261C3610362436283620A23C36201F093
:10142000C3FA18B104484621FFF750FB08BD00BFBE
:1014300024060020003001402849000808B50E4865
:101440000E4B03604FF48273436000238360C360DC
:10145000036143614FF400728261C36103624362BE
:1014600083620A23C36201F09FFA18B104485C2129
:10147000FFF72CFB08BD00BFCC0500200038004062
:101480002849000810B586B00368234A93421ED14C
:10149000224B9A6942F480529A619B6903F480530B
:1014A0000093009BA023029302230393032305933D
:1014B0001B4C204602A902F0B9FB402302930023F3
:1014C00003930493204602A902F0B0FB22E0154AE0
:1014D00093421FD1114BDA6942F48042DA61DB6931
:1014E00003F480430193019B4FF4204302930223B2
:1014F0000393032305930C4C204602A902F096FBAC
:101500004FF480430293002303930493204602A9DF
:1015100002F08CFB06B010BD00300140001002400C
:101520000008014000380040000C014000B587B0C1
:1015300016484FF080430360002343608360C3601C
:101540000361836101F0F2FB18B111488121FFF7BB
:10155000BDFA06A94FF4805341F8103D0B4801F045
:1015600021FB18B10A488721FFF7B0FA0023009346
:1015700001930648694601F0D9FC18B104488E2150
:10158000FFF7A4FA07B05DF804FB00BF3C0700209A
:101590003449000800B587B01548164B0360002396
:1015A00043608360C3600361836101F0BFFB18B1D6
:1015B0001148A021FFF78AFA06A94FF4805341F899
:1015C000103D0B4801F0EEFA18B10B48A621FFF7C9
:1015D0007DFA0023009301930548694601F0A6FCBB
:1015E00018B10548AD21FFF771FA07B05DF804FBAB
:1015F000BC060020000400403449000800B587B054
:101600001548164B0360002343608360C360036189
:10161000836101F08BFB18B11148BF21FFF756FA27
:1016200006A94FF4805341F8103D0B4801F0BAFA77
:1016300018B10B48C521FFF749FA00230093019325
:101640000548694601F072FC18B10548CC21FFF746
:101650003DFA07B05DF804FB7C060020000800405E
:10166000344900080268084B9A420CD182B003F555
:1016700064439A6942F400629A619B6903F40063CF
:101680000193019B02B07047002C014084B00368B5
:10169000B3F1804F0BD103F50433DA6942F0010254
:1016A000DA61DB6903F001030193019B1AE00E4A42
:1016B00093420AD10D4BDA6942F00202DA61DB692A
:1016C00003F002030293029B0CE0094A934209D102
:1016D000064BDA6942F00402DA61DB6903F00403C5
:1016E0000393039B04B070470004004000100240C5
:1016F000000800400268094B9A420ED100B585B03F
:101700004FF4E06300930223019303930448694676
:1017100002F08CFA05B05DF804FB7047002C014024
:101720000008014000B591B02D482E4B0360002306
:1017300043608360C36003614361836101F012FB16
:1017400018B129484421FFF7C1F900230E930F93E4
:1017500023480EA901F0EAFB18B123484B21FFF7FB
:10176000B5F9602307930022089209920A920B921E
:101770000C920D921A4807A901F040FB18B11A48C3
:101780005721FFF7A3F9164807A9042201F036FBF9
:1017900018B115485C21FFF799F9114807A90822EB
:1017A00001F02CFB18B110486121FFF78FF90023DD
:1017B000009301930293039304934FF40052059214
:1017C00006930748694601F087FB18B106486D216A
:1017D000FFF77CF90248FFF78DFF11B05DF804FBBD
:1017E000FC060020002C01403449000808B50B48D5
:1017F0000B4B03604FF4E133436000238360C3600D
:1018000003610C2242618361C36101F0CBFC18B11A
:1018100004484321FFF75AF908BD00BF7C070020A8
:10182000003801404049000808B50B480B4B0360E5
:101830004FF4E133436000238360C36003610C22F3
:1018400042618361C36101F0ADFC18B104485621C7
:10185000FFF73CF908BD00BFBC0700200044004072
:101860004049000810B586B00368264A934225D146
:10187000254B9A6942F480429A619B6903F4804344
:101880000093009B402302930223039303230593B9
:101890001E4C204602A902F0C9F9802302930023BE
:1018A00003930493204602A902F0C0F9184A536832
:1018B00043F0E06343F00403536020E0154A934291
:1018C0001DD1114BDA6942F40032DA61DB6903F4AD
:1018D00000330193019B0423029302230393032308
:1018E00005930D4C204602A902F0A0F908230293AB
:1018F000002303930493204602A902F097F906B04F
:1019000010BD00BF0038014000100240000C014033
:10191000000001400044004000080140704700BF43
:10192000FEE700BFFEE700BFFEE700BFFEE700BF27
:10193000704700BF704700BF704700BF08B501F097
:101940000BFD02F0DBFA08BD00B583B0244B9A69A9
:1019500042F001029A619A6902F001020092009A33
:10196000DA6942F08052DA61DB6903F08053019357
:10197000019B032002F056FA6FF00B0000210A468B
:1019800002F062FA6FF00A0000210A4602F05CFAE7
:101990006FF0090000210A4602F056FA6FF00400C9
:1019A00000210A4602F050FA6FF0030000210A46B7
:1019B00002F04AFA6FF0010000210A4602F044FAF0
:1019C0004FF0FF3000210A4602F03EFA054A536804
:1019D00023F0E06343F00073536003B05DF804FB51
:1019E000001002400000014000B587B006AB03F8CC
:1019F000010D0093012301930A22029203487821EA
:101A0000002200F085FC07B05DF804FB1005002003
:101A1000002306E008B9002100E0FF21034AD15469
:101A20000133B3F5806FF5D3704700BF9C000020F1
:101A300010B584B000241AE0A4F15000C0B2FFF742
:101A4000D3FF0020FFF7D0FF1020FFF7CDFF0A4B98
:101A500003EBC4130093802301936423029307488C
:101A600078214022012300F053FC0134E4B2072C1A
:101A7000E2D904B010BD00BF9C000020100500207A
:101A800008B5642001F07AFCAE20FFF7ADFF2020FE
:101A9000FFF7AAFF1020FFF7A7FFB020FFF7A4FF72
:101AA000C820FFF7A1FF0020FFF79EFF1020FFF7DF
:101AB0009BFF4020FFF798FF8120FFF795FFFF2055
:101AC000FFF792FFA120FFF78FFFA620FFF78CFF03
:101AD000A820FFF789FF3F20FFF786FFA420FFF72C
:101AE00083FFD320FFF780FF0020FFF77DFFD52085
:101AF000FFF77AFFF020FFF777FFD920FFF774FF99
:101B00002220FFF771FFDA20FFF76EFF1220FFF7A8
:101B10006BFFDB20FFF768FF2020FFF765FF8D20BC
:101B2000FFF762FF1420FFF75FFFAF20FFF75CFFB6
:101B30000020FFF76DFFFFF77BFF034B00221A80A9
:101B40005A800120587108BD9C04002010F0800FBD
:101B500021D13F291FD8104B1B7913B1B2FA82F261
:101B60005209012A0BD1CB0800EBC31001F0070189
:101B700001238B40094A115C0B4313547047CB0877
:101B800000EBC31001F0070101238B4003490A5CFD
:101B900022EA03030B5470479C0400209C000020A1
:101BA0002DE9F04F83B002AC04E90600244A128804
:101BB0009DF8006032447F2A3CDC214A52889DF81F
:101BC00001A0D34652443F2A36DC98468146002580
:101BD00028E0A9F1200303FB0B53019A32F813709C
:101BE00000241CE007FA04F313F4004F0AD0144B4E
:101BF0001888598820442944C0B2C9B24246FFF728
:101C0000A5FF0BE00E4B1888598820442944C0B228
:101C1000C9B2B8FA88F25209FFF798FF0134A64218
:101C2000E0D80135AA45D4D8054A13881E44168049
:101C3000484602E0002000E0002003B0BDE8F08F3D
:101C40009C04002030B583B0044602A800E90600D9
:101C50001D460AE0184602AB13E906002B46FFF7C3
:101C60009FFF2378984203D101342378002BF1D1D0
:101C7000184603B030BD00BF014B18805980704733
:101C80009C04002070B483B00023019390F82430AA
:101C9000012B00F08380012380F824304B68062B51
:101CA0000DD80668756B03EB8303053B1F229A4032
:101CB00025EA02040A689A40224372631CE00C2B56
:101CC0000DD80668356B03EB8303233B1F229A4034
:101CD00025EA02040A689A40224332630CE006684F
:101CE000F56A03EB8303413B1F229A4025EA020475
:101CF0000A689A402243F2620B68092B0DD90668E4
:101D0000F56803EB43031E3B07229A4025EA0204D1
:101D10008A689A402243F2600BE00668356903EB5B
:101D2000430307229A4025EA02048A689A40224324
:101D300032610B68103B012B26D80368194A934285
:101D40001CD19A6812F4000F20D19A6842F4000264
:101D50009A600B68102B1BD1134B1B68134AA2FB14
:101D600003239B0C03EB83035B00019302E0019BC5
:101D7000013B0193019B002BF9D10AE0836A43F0F8
:101D800020038362012304E0002302E0002300E03B
:101D90000023002280F82420184600E0022003B02F
:101DA00070BC7047002401401800002083DE1B43F4
:101DB00038B503689A6812F0010F1ED004469A687D
:101DC00022F001029A6001F0D3FA05460EE001F01C
:101DD000CFFA401B022809D9A36A43F01003A3627B
:101DE000E36A43F00103E362012038BD23689B6886
:101DF00013F0010FEBD1002038BD002038BD00BF2B
:101E000000287DD038B50446836A23B9C36280F8C0
:101E10002430FFF7F5F92046FFF7CAFFA36A13F055
:101E2000100F67D1002865D1A36A23F4885323F0EB
:101E3000020343F00203A3626268E3691343E168AB
:101E400043EA4103A268B2F5807F04D0012A05D19C
:101E50004FF4807203E04FF4807200E00022656965
:101E6000012D0FD131B9A169013942EA413242F461
:101E7000006207E0A16A41F02001A162E16A41F03D
:101E80000101E1622568696821F469410A436A60D9
:101E900021688D681B4A2A401A438A60A268B2F5FD
:101EA000807F01D0012A03D12269013A110500E0A7
:101EB00000212568EA6A22F470020A43EA62226875
:101EC0009168114A0A40934208D10023E362A36A51
:101ED00023F0030343F00103A36238BDA36A23F098
:101EE000120343F01003A362E36A43F00103E362C9
:101EF000012038BDA36A43F01003A362012038BD5E
:101F000001207047FDF7E1FFFE0E1FFF03685A69CD
:101F100012F4806F0DD06FF480625A610423036461
:101F200000230363202280F83D2080F83C3001200C
:101F300070470020704700BFF8B506460C461746AC
:101F40001D4614E0B5F1FF3F11D02DB101F010FA9C
:101F5000069BC01AA8420AD900233363202286F8C0
:101F60003D2086F83E3086F83C300320F8BDC4F3AF
:101F70000743012B08D133685B6924EA03039BB252
:101F8000B3FA83F35B0907E033689B6924EA030330
:101F90009BB2B3FA83F35B09BB42D3D00020F8BDF8
:101FA000F8B504460D4616461F4629E023685A69CF
:101FB00012F4806F12D01A6842F400721A6023681B
:101FC0006FF480625A610423236400232363202278
:101FD00084F83D2084F83C300120F8BDB6F1FF3F85
:101FE0000ED026B101F0C4F9C01BB04208D90023BD
:101FF0002363202284F83D2084F83C300320F8BD80
:10200000C5F30743012B08D123685B6925EA030365
:102010009BB2003318BF012307E023689B6925EAC0
:1020200003039BB2003318BF0123002BBED1002055
:10203000F8BD00BF70B504460D46164619E02046AF
:10204000FFF764FFE0B9B5F1FF3F12D025B101F011
:102050008FF9801BA8420CD9236C43F02003236422
:1020600000232363202284F83D2084F83C300320A1
:1020700070BD23685B6913F0800FE0D0002070BD55
:10208000012070BD2DE9F04184B005468846164612
:102090001F460B9C0268136843F48073136000941E
:1020A0004FF0011100220A9BFFF746FF002846D19E
:1020B0002A6808F0FE031361284626490A9A234637
:1020C000FFF76EFF20B12B6C042B3AD101233DE0CA
:1020D000002303932B685A6903929B690393039B24
:1020E00028460A992246FFF7A5FF034648B12B6C04
:1020F000042B28D12A68136843F40073136001236A
:1021000024E0012F03D12A68F6B216611EE02B6885
:10211000320A1A6128460A992246FFF78BFF0346C6
:1021200048B12B6C042B10D12A68136843F4007358
:10213000136001230AE02A68F6B2166106E0032361
:1021400004E0032302E0032300E00323184604B065
:10215000BDE8F0810200010070B504460D46164648
:1021600019E02046FFF7D2FEE0B9B5F1FF3F12D0EB
:1021700025B101F0FDF8801BA8420CD9236C43F077
:102180002003236400232363202284F83D2084F865
:102190003C30032070BD23685B6913F0040FE0D06E
:1021A000002070BD012070BD002800F0A28070B535
:1021B000044690F83D3013F0FF0F04D1002380F85F
:1021C0003C30FFF797F8242384F83D3022681368E9
:1021D00023F00103136001F0FBFB6268474B9A4256
:1021E00005D8474B98428CBF0023012304E0454BA0
:1021F00098428CBF00230123002B7CD1424BA3FBD0
:1022000000239B0C22685360216865683B4A954215
:1022100001D8013308E04FF4967202FB03F33B4A06
:10222000A2FB03239B0901330B6222686168334BD5
:1022300099420AD801384900B0FBF1F00130C0F3EF
:102240000B00042838BF042035E0A5685DB9431EA3
:1022500001EB4106B3FBF6F31B0513F5801F14BF1A
:10226000002301230CE0431E01EB810606EB8606EA
:10227000B3FBF6F31B0513F5801F14BF00230123E6
:10228000C3B955B9431E01EB4100B3FBF0F0013077
:10229000C0F30B0040F400400DE0431E01EB810051
:1022A00000EB8000B3FBF0F00130C0F30B0040F412
:1022B000404000E00120D0612268E169236A0B43BD
:1022C000136022682169E3680B43936022686169A7
:1022D000A3690B43D3602268136843F001031360C2
:1022E00000202064202384F83D30206384F83E00E1
:1022F00070BD01207047012070BD00BFA0860100A5
:102300007F841E00FF083D0083DE1B43D34D621017
:102310002DE9F04182B00446884617461E4601F07A
:1023200027F894F83D30DBB2202B40F09C80054626
:1023300000902046524901221923FFF7FDFD002895
:1023400040F0938094F83C30012B00F09080012302
:1023500084F83C3023681A6812F0010F03D11A6820
:1023600042F001021A602268136823F400631360CC
:10237000212384F83D30402384F83E300023236439
:10238000089B6362BDF8243063853E4BE362638D36
:1023900023850A9B00930195204641463A463346E1
:1023A000FFF770FE00283CD0236C042B04D10023DF
:1023B00084F83C3001235FE0002384F83C300323A1
:1023C0005AE020460A992A46FFF734FE48B1236CAA
:1023D000042B4ED12268136843F400731360012369
:1023E0004AE02268636A591C61621B781361238D7D
:1023F000013B9BB22385628D013A92B262852268CD
:10240000516911F0040F0CD05BB1636A591C616211
:102410001B781361238D013B2385638D013B9BB2A8
:102420006385238D002BCCD120460A992A46FFF7DD
:1024300093FE034648B1236C042B1CD12268136819
:1024400043F400731360012316E021680A6842F424
:1024500000720A60202284F83D20002284F83E2089
:1024600084F83C2008E0022306E0022304E0022373
:1024700002E0032300E00323184602B0BDE8F08128
:10248000020010000000FFFF30B4026891698DB2B5
:10249000D369906984B2A54204D0D3699BB243EA60
:1024A000004002E09BB243EA014030BC704700BFED
:1024B0000368186A5B6A9BB243EA0040704700BF3A
:1024C000002302E001330A38C0B20928FAD81B0100
:1024D000DBB21843704700BF10F0030F14D10D4B4F
:1024E000A3FB00235B09642202FB13039BB26BB9BD
:1024F000084BA3FB0023DB094FF4C87202FB130057
:1025000080B228B901207047002070470120704731
:10251000002070471F85EB5110B400F5FA640229C2
:1025200020D801EB4103C1EBC3011F4BA3FB0131D9
:1025300002EB5102224400F2CF7002EB90021B4BDF
:10254000A3FB0013A2EB531202EBD313043318487E
:10255000A3FB0001581A01EB50008008C0EBC0003B
:10256000181A1DE001EB4103C1EBC3010E4BA3FBA5
:10257000011302EB5302131903EB94020B4BA3FB61
:102580000434A2EB541303EBD41302330848A3FB27
:102590000001581A01EB50008008C0EBC000181A67
:1025A000C0B25DF8044B7047398EE3381F85EB519C
:1025B000254992242DE9F84380460F4690F80F9064
:1025C000447B867B002541E0012C0BD0032C09D0F5
:1025D000052C07D0072C05D0082C03D00A2C01D0DD
:1025E0000C2C0DD11E2E01D801362EE00C2C02D061
:1025F0000134012629E009F101090126344624E0CD
:10260000042C05D0062C03D0092C01D00B2C06D1AC
:102610001D2E01D8013618E00134012615E0022CE8
:1026200013D11B2E01D801360FE01C2E09D11FFA41
:1026300089F0FFF751FF08B1013606E001340126A9
:1026400003E01D2E01D1013401260135BD42BBD36B
:1026500088F80F90E1B288F80D10F2B288F80E20D9
:102660004846FFF759FF88F80C00BDE8F88300BF23
:1026700038B5044600F07CFE054605E000F078FE23
:10268000401BB0F57A7F0AD823685A6812F0200FF1
:10269000F4D05A6842F010025A60002038BD03207E
:1026A00038BD00BF38B504460268536823F01003F4
:1026B000536000F05DFE054605E000F059FE401B4A
:1026C000B0F57A7F06D823685B6813F0200FF4D04A
:1026D000002038BD032038BD38B505460C46FFF74D
:1026E000C7FF50B92B68220C9A612B68A4B2DC6139
:1026F0002846FFF7D7FF10B938BD012038BD0120AB
:1027000038BD00BF38B505460C46FFF7B1FF50B9DC
:102710002B68220C1A622B68A4B25C622846FFF771
:10272000C1FF10B938BD012038BD012038BD00BF40
:10273000002867D02DE9F8430546002964D00368D6
:102740005B6813F0040F62D116460C46FFF79CFE3F
:102750000746364AA2FB0032D20A4FF4616101FB00
:102760001201334BA3FB01035B096370C3EB03133B
:102770009B00C81AA070172A33D92E4BA3FB02382E
:102780004FEA181808EB4803DB00D31A23702846D9
:10279000FFF78EFE8146B0F1FF3F06D0B84202D966
:1027A000C7EB000901E04FF0FF39234B03FB18771B
:1027B00028463946FFF790FF60BBB9F1FF3F06D0CE
:1027C000284609EB0701FFF79DFF28B125E02846C1
:1027D0004946FFF797FF18BB28464146FFF7EAFE38
:1027E00000E02270FEB12078FFF76AFE207060786A
:1027F000FFF766FE6070A078FFF762FEA070002011
:10280000BDE8F883012070470120BDE8F88301206E
:10281000BDE8F8830120BDE8F8830120BDE8F88316
:102820000120BDE8F8830020BDE8F883C5B3A2917C
:1028300089888888ABAAAAAA805101002DE9F041B5
:1028400082B00023ADF804308DF8063000B30546A1
:1028500001B317460C4601A91A46FFF769FF064661
:10286000D0B92B7B2370E87BE07095F80D8084F85D
:102870000180AD7BA57087B1FFF722FEE070404676
:10288000FFF71EFE60702846FFF71AFEA07004E0F6
:10289000012602E0012600E00126304602B0BDE834
:1028A000F08100BFB8B138B504460268536823F020
:1028B0000803536000F05CFD054605E000F058FD9C
:1028C000401BB0F57A7F08D823685B6813F0080FC7
:1028D000F4D0002038BD01207047032038BD00BF70
:1028E000002859D010B50446437C13F0FF0F03D1E4
:1028F00000230374FEF75EFD022363742046FFF796
:10290000D1FF18B104236374012348E02046FFF788
:10291000AFFE18B104236374012340E022685368BA
:1029200023F007035360A36823B11E4A136B23F0FF
:10293000010313631B49CB6A23F46072A36813433A
:10294000CB626068B0F1FF3F08D1012001F0EAF8E6
:1029500018B904236374012321E0013822689368C5
:1029600023F00F0343EA104393602268D3681B0CE3
:102970001B0480B21843D0602046FFF793FE034645
:1029800018B104236374012309E00022E2730122D9
:102990006273A273627402E00123184670471846FE
:1029A00010BD00BF006C004000283CD010B50446AC
:1029B0000023836290F8513013F0FF0F01D1FEF72E
:1029C00061FD022384F851302268136823F040032C
:1029D000136021686268A3681A43E3681A43236995
:1029E0001A4363691A43A36903F400731343E2694A
:1029F0001343226A1343A26A1A430A602168638B55
:102A000003F00402636A13434B602368E26A1A61AD
:102A10002268D36923F40063D36100206065012339
:102A200084F8513010BD0120704700BF30B4036AF4
:102A300023F001030362036A4468826922F073028F
:102A40000D682A4323F002038D682B430C4DA842E6
:102A500005D123F00803CD682B4323F00403084D70
:102A6000A84205D124F440744D692C438D692C4350
:102A7000446082614A684263036230BC704700BFB1
:102A8000002C014030B4036A23F480730362036AAC
:102A90004468C26922F073020D682A4323F400736C
:102AA0008D6843EA05230E4DA84206D123F4006346
:102AB000CD6843EA052323F48063094DA84207D17A
:102AC00024F440544D6944EA05148D6944EA051420
:102AD0004460C2614A68C263036230BC704700BF91
:102AE000002C014030B4036A23F480530362036A6C
:102AF0004468C26922F4E6420D6842EA052223F4E2
:102B000000538D6843EA0533074DA84204D124F4ED
:102B100080444D6944EA85144460C2614A68026495
:102B2000036230BC704700BF002C014010B4036A40
:102B3000046A24F001040462846924F0F00444EA85
:102B4000021223F00A031943826101625DF8044B0B
:102B5000704700BF10B4036A23F010030362846956
:102B6000036A24F4704444EA023223F0A00343EAE7
:102B70000111826101625DF8044B7047836823F0A4
:102B8000700341F007010B438360704710B4846801
:102B900024F47F4442EA032319430C4384605DF824
:102BA000044B704738B590F83C30012B00F083801F
:102BB0000D460446012380F83C30022380F83D3066
:102BC0000268936823F47F4323F0770393600B68D4
:102BD000402B4CD00AD8102B58D002D8002B50D004
:102BE00062E0202B57D0302B5AD05DE0702B12D0F2
:102BF00004D8502B27D0602B2FD055E0B3F5805F41
:102C000003D0B3F5005F12D04EE00268936823F062
:102C10000703936048E0006889686A68EB68FFF71B
:102C2000B5FF2268936843F0770393603CE0006847
:102C300089686A68EB68FFF7A9FF2268936843F424
:102C40008043936030E000684968EA68FFF76EFFF0
:102C500020685021FFF792FF26E000684968EA6883
:102C6000FFF778FF20686021FFF788FF1CE000680D
:102C70004968EA68FFF75AFF20684021FFF77EFFA6
:102C800012E000680021FFF779FF0DE000681021D5
:102C9000FFF774FF08E000682021FFF76FFF03E0F3
:102CA00000683021FFF76AFF012384F83D300020DF
:102CB00084F83C0038BD022038BD00BF03681A4AC2
:102CC00090420AD0B0F1804F07D0A2F594329042E2
:102CD00003D002F58062904203D123F070034A686A
:102CE0001343114A90420AD0B0F1804F07D0A2F5A9
:102CF0009432904203D002F58062904203D123F4D3
:102D00004073CA68134323F080034A691343036086
:102D10008B68C3620B688362034B984201D10B69D5
:102D20000363012343617047002C0140C0B110B51B
:102D3000044690F83D3013F0FF0F04D1002380F8D3
:102D40003C30FEF7A3FC022384F83D30214651F8C5
:102D5000040BFFF7B3FF012384F83D30002010BDC2
:102D600001207047C0B110B5044690F83D3013F013
:102D7000FF0F04D1002380F83C30FEF773FC0223E0
:102D800084F83D30214651F8040BFFF797FF0123EB
:102D900084F83D30002010BD0120704730B4036A34
:102DA00023F010030362036A4468826922F4E64256
:102DB0000D6842EA052223F020038D6843EA0513DB
:102DC0000D4DA84206D123F08003CD6843EA0513D8
:102DD00023F04003084DA84207D124F440644D6914
:102DE00044EA85048D6944EA8504446082614A6846
:102DF0008263036230BC7047002C014038B590F804
:102E00003C30012B66D00D460446012380F83C304F
:102E1000022380F83D300C2A55D8DFE802F0075431
:102E200054541A5454542E54545441000068FFF71B
:102E3000FDFD2268936943F008039361226893695A
:102E400023F004039361226891692B690B4393611A
:102E500039E00068FFF7A2FF2268936943F400633A
:102E600093612268936923F4806393612268936974
:102E7000296943EA0123936125E00068FFF702FE18
:102E80002268D36943F00803D3612268D36923F031
:102E90000403D3612268D1692B690B43D36112E02B
:102EA0000068FFF71FFE2268D36943F40063D36113
:102EB0002268D36923F48063D3612268D3692969C6
:102EC00043EA0123D361012384F83D30002084F8D4
:102ED0003C0038BD022038BD90F83C30012B22D098
:102EE000012380F83C30CB6823F440728B68134395
:102EF00023F480624B68134323F400620B6813438E
:102F000023F480520B69134323F400524B6913439B
:102F10008A6923F44043134302685364002380F812
:102F20003C30184670470220704700BF90F83C3094
:102F3000012B21D030B4012280F83C20022380F8FC
:102F40003D300468636823F070036360046865685B
:102F50000B682B4363600468A36823F08003A360BD
:102F60000468A5684B682B43A36080F83D200023CC
:102F700080F83C30184601E00220704730BC7047B2
:102F80002DE9F843814601680B6923F44052C36878
:102F900013430B618168036919434369194300684E
:102FA000C26822F4B05323F00C030B43C360D9F87A
:102FB00000104B6923F44072D9F8183013434B6169
:102FC000D9F800505B4B9D4259D100F011FD00EB48
:102FD000800000EB8000D9F80440A400B0FBF4F4BA
:102FE000554EA6FB04346409240100F001FD00EBFA
:102FF000800000EB8000D9F804309B00B0FBF3F7B1
:1030000000F0F6FC00EB800000EB8000D9F8043003
:103010009B00B0FBF3F3A6FB03235B094FF06408AE
:1030200008FB13731B013233A6FB03235B0903F078
:10303000F0031C4400F0DCFC00EB800000EB80009F
:10304000D9F804309B00B0FBF3F700F0D1FC00EBA3
:10305000800000EB8000D9F804309B00B0FBF3F354
:10306000A6FB03235B0908FB13731B013233A6FB8A
:103070000323C3F343131C44AC60BDE8F88300F0A2
:10308000A7FC00EB800000EB8000D9F80440A4000E
:10309000B0FBF4F4284EA6FB04346409240100F0CC
:1030A00097FC00EB800000EB8000D9F804309B0017
:1030B000B0FBF3F700F08CFC00EB800000EB80002D
:1030C000D9F804309B00B0FBF3F3A6FB03235B09A4
:1030D0004FF0640808FB13731B013233A6FB032374
:1030E0005B0903F0F0031C4400F072FC00EB80006D
:1030F00000EB8000D9F804309B00B0FBF3F700F040
:1031000067FC00EB800000EB8000D9F804309B00E6
:10311000B0FBF3F3A6FB03235B0908FB13731B014E
:103120003233A6FB0323C3F343131C44AC60BDE856
:10313000F88300BF003801401F85EB512DE9F041B5
:1031400006460C4617469846069D1EE0B5F1FF3F21
:103150001BD02DB100F00CF9C8EB0000A84214D927
:103160003268D36823F4D073D3603268536923F094
:1031700001035361202386F8393086F83A30002362
:1031800086F838300320BDE8F08133681B6823409F
:10319000A34214BF00230123BB42D7D00020BDE8C7
:1031A000F08100BF68B310B5044690F8393013F0D1
:1031B000FF0F04D1002380F83830FEF753FB24239F
:1031C00084F839302268D36823F40053D360204652
:1031D000FFF7D6FE2268136923F490431361226837
:1031E000536923F02A0353612268D36843F40053E0
:1031F000D3600020E063202384F8393084F83A302B
:1032000010BD0120704700BF2DE9F04182B0044697
:103210001E4690F83930DBB2202B54D10D46904633
:10322000002952D0002A52D090F83830012B50D0CB
:10323000012380F838300023C363212380F839301C
:1032400000F096F80746A4F82480A4F8268026E02B
:10325000E38C013B9BB2E384A368B3F5805F12D19A
:1032600000962046802100223B46FFF767FF90BB77
:1032700022682B88C3F30803536023690BB9023516
:103280000DE001350BE000962046802100223B46F0
:10329000FFF754FF08BB23682A785A600135E38C96
:1032A0009BB2002BD4D100962046402100223B4601
:1032B000FFF744FF034690B9202284F8392000220A
:1032C00084F838200CE002230AE0012308E00123FF
:1032D00006E0022304E0032302E0032300E00323CB
:1032E000184602B0BDE8F08110B504460E4B1878C0
:1032F0004FF47A73B3FBF0F30C4A1068B0FBF3F0B1
:1033000000F0D4FD58B90F2C0BD84FF0FF302146F8
:10331000002200F099FD064B1C60002010BD01202A
:1033200010BD012010BD00BF1400002018000020B7
:103330001000002008B5074A136843F0100313601B
:10334000032000F06FFD0020FFF7CEFFFEF7FCFA30
:10335000002008BD00200240034A13680349097891
:103360000B441360704700BFFC07002014000020CE
:10337000014B1868704700BFFC07002038B50446B1
:10338000FFF7F6FF0546B4F1FF3F02D0044B1B7870
:103390001C44FFF7EDFF401B8442FAD838BD00BF44
:1033A0001400002082B0084B1B68084AA2FB0323CC
:1033B0005B0A00FB03F0019000BF019B5A1E0192C3
:1033C000002BF9D102B0704718000020D34D6210D5
:1033D00070B582B00446036813F0010F6BD0A84BA0
:1033E0005B6803F00C03042B0AD0A54B5B6803F069
:1033F0000C03082B0DD1A24B5B6813F4803F08D05F
:103400009F4B1B6813F4003F55D06368002B52D1CB
:10341000B8E16368B3F5803F05D1994A136843F476
:103420008033136026E063B903F1804303F504336E
:103430001A6822F480321A601A6822F480221A6014
:1034400018E0B3F5A02F0CD103F18043A3F53C3372
:103450001A6842F480221A601A6842F480321A60B4
:1034600008E0874B1A6822F480321A601A6822F446
:1034700080221A6063687BB1FFF77AFF054605E09A
:10348000FFF776FF401B642800F27E817C4B1B68AF
:1034900013F4003FF4D00EE0FFF76AFF054605E0A5
:1034A000FFF766FF401B642800F27081744B1B68B5
:1034B00013F4003FF4D1236813F0020F50D0704B87
:1034C0005B6813F00C0F0AD06D4B5B6803F00C03C4
:1034D000082B16D16A4B5B6813F4803F11D1684BFF
:1034E0001B6813F0020F03D02369012B40F05081B9
:1034F000634A136823F0F803616943EAC103136068
:103500002EE02369D3B101225E4B1A60FFF730FF32
:10351000054605E0FFF72CFF401B022800F23A8128
:10352000574B1B6813F0020FF4D0554A136823F071
:10353000F803616943EAC103136011E00022514BB3
:103540001A60FFF715FF054605E0FFF711FF401B66
:10355000022800F221814A4B1B6813F0020FF4D1BC
:10356000236813F0080F29D0A369ABB10122464BA1
:103570001A60FFF7FDFE054605E0FFF7F9FE401B68
:10358000022800F20B813E4B5B6A13F0020FF4D06D
:103590000120FFF707FF11E000223B4B1A60FFF705
:1035A000E7FE054605E0FFF7E3FE401B022800F2B8
:1035B000F780334B5B6A13F0020FF4D1236813F0EA
:1035C000040F00F089802E4BDB6913F0805F0BD174
:1035D0002B4BDA6942F08052DA61DB6903F08053E9
:1035E0000193019B012500E00025284B1B6813F483
:1035F000807F13D1254A136843F480731360FFF76B
:10360000B7FE064605E0FFF7B3FE801B642800F214
:10361000C9801E4B1B6813F4807FF4D0E368012B34
:1036200005D1174A136A43F00103136222E063B91C
:1036300003F1804303F504331A6A22F001021A628F
:103640001A6A22F004021A6214E0052B09D10C4B0D
:103650001A6A42F004021A621A6A42F001021A62FD
:1036600008E0074B1A6A22F001021A621A6A22F075
:1036700004021A62E368CBB1FFF77AFE06460FE058
:1036800000100240000042428004424200700040AC
:10369000FFF76EFE801B41F28833984200F284806F
:1036A000494B1B6A13F0020FF2D00FE0FFF760FEE8
:1036B000064606E0FFF75CFE801B41F28833984225
:1036C00074D8414B1B6A13F0020FF3D125B13E4A67
:1036D000D36923F08053D361E369002B68D03A4A61
:1036E000526802F00C02082A64D0022B37D1002263
:1036F000364B1A60FFF73CFE054604E0FFF738FE44
:10370000401B022858D8304B1B6813F0007FF5D1BE
:10371000236AB3F5803F06D12B494B6823F400326E
:10372000A36813434B602848436823F47411236A49
:10373000626A13430B4343600122244B1A60FFF774
:1037400017FE044604E0FFF713FE001B022835D8DD
:103750001D4B1B6813F0007FF5D0002031E00022E4
:103760001A4B1A60FFF704FE044604E0FFF700FE60
:10377000001B022824D8144B1B6813F0007FF5D1DE
:1037800000201EE001201CE003201AE0032018E0C6
:10379000012016E0032014E0032012E0032010E0D3
:1037A00003200EE003200CE003200AE0032008E0E1
:1037B000002006E0012004E0032002E0032000E0F6
:1037C000032002B070BD00BF001002406000424202
:1037D00030B486B0164D02AC28686968AA68EB68F8
:1037E0000FC42B8AADF80430124B5B6803F00C0257
:1037F000082A19D1C3F3834206A90A4412F8100C0F
:1038000013F4803F0CD00B4B5B68C3F340430B4475
:1038100013F8142C084B03FB00F0B0FBF2F004E0AB
:10382000064B03FB00F000E0034806B030BC7047D5
:10383000604800080010024000127A0000093D00B4
:1038400070B55C4B1B6803F007038B420BD2594ADF
:10385000136823F007030B431360136803F0070397
:103860008B4240F09780036813F0020F06D0524C51
:10387000636823F0F0028368134363600D460446D7
:10388000036813F0010F4DD04268012A05D14A4B5D
:103890001B6813F4003F0DD17EE0022A05D1464B90
:1038A0001B6813F0007F05D178E0434B1B6813F0D1
:1038B000020F75D040494B6823F0030313434B605C
:1038C000FFF756FD06466368012B0ED106E0FFF7B1
:1038D0004FFD801B41F28833984263D8364B5B68BA
:1038E00003F00C03042BF2D11CE0022B15D106E0EF
:1038F000FFF73EFD801B41F28833984254D82E4B8F
:103900005B6803F00C03082BF2D10BE0FFF730FDEE
:10391000801B41F28833984248D8274B5B6813F0EC
:103920000C0FF3D1234B1B6803F00703AB420AD9FA
:10393000204A136823F007032B431360136803F036
:103940000703AB4234D1236813F0040F06D01A49A1
:103950004B6823F4E062E36813434B60236813F081
:10396000080F07D0144A536823F46053216943EACF
:10397000C1035360FFF72CFF0F4B5B68C3F30313C6
:103980000E4AD35CD8400E4B18600020FFF7ACFC09
:10399000002070BD012070BD012070BD012070BDF0
:1039A000012070BD032070BD032070BD032070BDD9
:1039B000012070BD0020024000100240F4690008A0
:1039C00018000020014B1868704700BF1800002045
:1039D00008B5FFF7F7FF044B5B68C3F30223034A04
:1039E000D35CD84008BD00BF00100240046A000844
:1039F00008B5FFF7E7FF044B5B68C3F3C223034A34
:103A0000D35CD84008BD00BF00100240046A000823
:103A100070B582B00446036813F0010F5CD03E4BD2
:103A2000DB6913F0805F0BD13B4BDA6942F08052C7
:103A3000DA61DB6903F080530193019B012600E00A
:103A40000026364B1B6813F4807F12D1334A13686B
:103A500043F480731360FFF78BFC054604E0FFF727
:103A600087FC401B64284FD82C4B1B6813F4807FC5
:103A7000F5D0294B1B6A13F4407321D0626802F41D
:103A800040729A421CD0244A136A23F4407024499D
:103A900001250D6000250D60106213F0010F0FD09D
:103AA000FFF766FC054606E0FFF762FC401B41F2AB
:103AB000883398422AD8184B1B6A13F0020FF3D0B0
:103AC00015490B6A23F44072636813430B621EB1FD
:103AD000CB6923F08053CB61236813F0020F06D02B
:103AE0000D494B6823F44042A36813434B6023689D
:103AF00013F0100F0CD008494B6823F48002E368E0
:103B000013434B60002004E0032002E0032000E0A8
:103B1000002002B070BD00BF0010024000700040E5
:103B20004004424270B586B006463B4D02AC286860
:103B30006968AA68EB680FC42B8AADF80430022EBE
:103B40004ED0102E02D0012E55D12DE0334B5A68A5
:103B50001B6813F0807F50D0C2F3834306A90B4447
:103B600013F8103C12F480320ED02C494968C1F38E
:103B7000404106A8014411F8140C4AB1284AB2FB8E
:103B8000F0F003FB00F004E0264800FB03F000E047
:103B90000020224B5B6813F4800F3AD14000224B87
:103BA000A3FB0030400834E01C4B1B6A40F2023299
:103BB0001A40B2F5817F22D003F44073B3F5007F41
:103BC00004D1164A526A12F0020F1BD1B3F5407F9E
:103BD0001BD1124B1B6813F4003F18D1002018E0D2
:103BE000FFF706FF0D4B5B68C3F3813301335B00C6
:103BF000B0FBF3F00DE000200BE0002009E04FF4F3
:103C0000004006E049F6404003E0002001E04FF2AA
:103C1000244006B070BD00BF744800080010024088
:103C200000127A0000093D00ABAAAAAAF0B583B041
:103C300000273C46DAE00122A2400B681340934281
:103C400040F0D3804D68122D2DD00BD8022D27D0F7
:103C500003D85DB3012D1ED035E0032D30D0112DDA
:103C60001BD030E0644EB54220D008D8A6F58016AF
:103C7000B5421BD006F58036B54224D116E05F4E22
:103C8000B54213D006F58036B5420FD0A6F58016A2
:103C9000B54218D10AE0CF6815E0CF68043712E0CA
:103CA000CF6808370FE0CF680C370CE08D684DB156
:103CB000012D02D10261082705E04261082702E0D8
:103CC000002700E00427FF2B01D8844601E000F123
:103CD000040CFF2B02D84FEA840E03E0A4F1080E77
:103CE0004FEA8E0EDCF800600F2202FA0EF226EA8E
:103CF000020507FA0EF22A43CCF800204A6812F0B7
:103D0000805F72D03E4A956945F0010595619269E0
:103D100002F001020192019A4FEA940E0EF102059F
:103D2000384A52F8256004F0030C4FEA8C0C0F223D
:103D300002FA0CF226EA0205334A904213D002F549
:103D4000806290420DD002F58062904207D002F569
:103D50008062904201D1032206E0042204E00222A4
:103D600002E0012200E0002202FA0CF22A430EF1E6
:103D7000020E244D45F82E204A6812F4803F05D0EB
:103D800005F580652A681A432A6004E01F4D2A68F9
:103D900022EA03022A604A6812F4003F04D01B4D55
:103DA0006A681A436A6004E0184D6A6822EA0302EE
:103DB0006A604A6812F4801F04D0144DAA681A433E
:103DC000AA6004E0114DAA6822EA0302AA604A68C8
:103DD00012F4001F04D00D4DEA681343EB6004E0B9
:103DE0000A4DEA6822EA0303EB6001340F2C7FF6E8
:103DF00022AF03B0F0BD00BF000021100000311061
:103E00000010024000000140000801400004014091
:103E10000AB101617047090401617047C3685940E4
:103E2000C160704700F00700064AD36823F4E063DE
:103E30001B041B0C43EA002040F0BF6040F400303C
:103E4000D060704700ED00E030B4164BDC68C4F37E
:103E50000224C4F10705042D28BF0425231D062BC9
:103E600001D9033C00E00024012303FA05F5013DDC
:103E70002940A140A340013B1A400A43002806DA2A
:103E800000F00F001201D2B2074B1A5407E01201E2
:103E9000D2B200F1604000F5614080F8002330BCF0
:103EA000704700BF00ED00E014ED00E00138B0F114
:103EB000807F0AD2064B5860F021064A82F8231010
:103EC0000020986007221A6070470120704700BFE9
:103ED00010E000E000ED00E0042805D1054A136879
:103EE00043F0040313607047024A136823F004038D
:103EF0001360704710E000E0704700BF08B5FFF79F
:103F0000FBFF08BD0122014B1A60704720000E42E2
:103F10000F4B1A6842F001021A6059680D4A0A40B4
:103F20005A601A6822F0847222F480321A601A6889
:103F300022F480221A605A6822F4FE025A604FF47A
:103F40001F029A604FF00062034B9A60704700BFF7
:103F5000001002400000FFF800ED00E0002103E047
:103F60000B4B5B58435004310A480B4B42189A42A2
:103F7000F6D30A4A02E0002342F8043B084B9A4277
:103F8000F9D3FFF7C5FF00F00FF8FCF7F9FD704714
:103F90004C6A000800000020800000208000002003
:103FA00004080020FEE700000E4B70B51E460E4CC4
:103FB0000025E41AA410A54204D056F825309847ED
:103FC0000135F8E700F040FC084B094C1E46E41AA6
:103FD000A4100025A54204D056F825309847013595
:103FE000F8E770BD446A0008446A0008446A0008A3
:103FF000486A00080EB400B54FF402719CB0ADF8E9
:1040000014106FF00041049107914FF6FF711DAB42
:10401000ADF81610084953F8042B02900690086872
:1040200002A9019300F06CF8029B00221A701CB0E8
:104030005DF804EB03B070477C000020034613F8E2
:10404000012B002AFBD1181A013870472DE9F047DF
:104050008E688246B3420C469046994640D38A8980
:1040600012F4906F3AD02568096902236F1A6569C6
:1040700005EB450595FBF3F57B1C4B449D4238BF92
:104080001D4653050FD5294600F03AFB064698B168
:1040900021693A4600F0CAFAA38923F4906343F0F9
:1040A0008003A38113E02A4600F080FB064670B926
:1040B0005046216900F0E0FA0C23CAF80030A389C9
:1040C0004FF0FF3043F04003A381BDE8F087266145
:1040D0003E4426604E466561ED1BA560B14500D2A9
:1040E0004E4632462068414600F0ABFAA3680020F5
:1040F0009B1BA36023681E442660BDE8F087000078
:104100002DE9F0439DB003938B8906461C060D46AE
:1041100090460CD50B6953B9402100F0F1FA2860A4
:10412000286110B90C233360CCE040236B6100237D
:10413000099320238DF8293030238DF82A30434607
:104140001C4613F8012B1AB9B4EB08090FD002E092
:10415000252AF5D1F8E73046294642464B46FFF777
:1041600075FF013000F0A980099B4B440993237827
:10417000002B00F0A28000234FF0FF32049307933E
:10418000059206938DF853301A9304F101084446C2
:10419000DFF8489121784846052200F039FA08F105
:1041A0000108049B30B1C9EB000001228240134397
:1041B0000493ECE7D80644BF20228DF8532019075A
:1041C00044BF2B228DF8532022782A2A02D0079947
:1041D00023460EE0039A0134111D12680391002A50
:1041E000BBBF524243F0020307920792B8BF049349
:1041F0000AE01C4622780133303A092A03D80A2003
:1042000000FB0121F5E7079123782E2B1AD1637863
:104210002A2B0AD1039B02341A1D1B680392002B20
:10422000B8BF4FF0FF3305930CE0611C00220C4631
:1042300023780131303B092B03D80A2000FB0232DE
:10424000F5E70592DFF8988021784046032200F0D8
:10425000DFF938B1049AC8EB0000402383401343D0
:104260000493013421781A48062204F101088DF8DC
:10427000281000F0CDF988B1164B33B9039B0733F2
:1042800023F007030833039313E003AB0093304696
:1042900004A92A46104BAFF3008007E003AB00935C
:1042A000304604A92A460C4B00F092F8421C0746FF
:1042B00003D0099B3B44099341E7AB895B0601D4DA
:1042C000099801E04FF0FF301DB0BDE8F08300BF5A
:1042D000186A0008000000004D4000080E6A00083F
:1042E000146A00082DE9F84391461F468A680B6955
:1042F00006469342B8BF1346C9F8003091F84320F0
:104300000C46DDF8208012B10133C9F80030236873
:10431000990642BFD9F800300233C9F80030256849
:1043200015F006051CD094F843302268003318BFFE
:10433000012392061FD5E118302081F843005A1C52
:1043400094F845102244023382F8431013E03046BB
:10435000394604F119020123C047013007D0013565
:10436000E368D9F800209B1A9D42F0DBDBE74FF0B1
:10437000FF30BDE8F8833046394604F14302C047B8
:104380000130F4D02268D9F80050E36802F0060248
:10439000042A08BF5D1B2269A3680CBF25EAE575E6
:1043A00000259342C4BF9B1AED184FF00009A945A0
:1043B0000ADA3046394604F11A020123C0470130B7
:1043C000D5D009F10109F2E70020BDE8F88300002B
:1043D0002DE9FF410C461746227E98466E2A064676
:1043E0000A9B01F1430100F0B08012D8632A23D068
:1043F0000AD8002A00F0BD80582A40F0CC8084F80A
:104400004520DFF804E257E0642A1ED0692A1CD058
:10441000C1E0732A00F0B18009D86F2A2ED0702A2B
:1044200040F0B980226842F0200222603FE0752A05
:1044300024D0782A3BD0AEE01A6804F14205111D61
:104440001960136884F84230A9E020681A6810F0F7
:10445000800F02D0101D186008E010F0400F02F12C
:104460000400186002D0B2F9003000E01368002B9D
:104470003EDA2D225B4284F8432039E020681A6836
:1044800010F0800F02D0101D186007E010F0400FF0
:1044900002F10400186001D0138800E01368227E46
:1044A000DFF864E16F2A0CBF08220A221CE07822A0
:1044B000DFF858E184F845202268186812F0800F70
:1044C00000F104051D6003D1550601D5038800E005
:1044D0000368D00744BF42F0200222601BB9226863
:1044E00022F0200222601022002084F8430002E023
:1044F000DFF814E10A226568002DA8BF2068A560D6
:10450000A4BF20F00400206003B965B10D46B3FBE1
:10451000F2F002FB10331EF8033005F8013D0346AC
:104520000028F4D100E00D46082A0BD12368DA07F1
:1045300008D5236962689A42DEBF302305F8013C42
:1045400005F1FF35491B21612EE025681A6815F039
:10455000800F606903D0151D1D60136808E015F019
:10456000400F02F104051D60136801D0188000E0BF
:104570001860002323610D4616E01A68111D1960AA
:10458000156800212846626800F042F808B1401B17
:104590006060636804E004F1420584F8422001236E
:1045A0002361002384F84330CDF800803046214653
:1045B00003AA3B46FFF796FE013002D14FF0FF30D1
:1045C0001FE0304639462A462369C0470130F5D0FE
:1045D00023689B0705D4E068039B9842B8BF184640
:1045E0000FE00025E368039A9B1A9D42F3DA3046F8
:1045F000394604F119020123C0470130DED00135EC
:10460000F0E704B0BDE8F0811F6A0008306A0008D6
:1046100010B5C9B202449042034605D01C7801305F
:104620008C42F8D1184610BD002010BD10B5431EB5
:104630000A44914204D011F8014B03F8014FF8E706
:1046400010BD814210B501EB020301D3421E0BE005
:104650009842FBD28118D21AD34204D013F8014DEC
:1046600001F8014DF8E710BD994204D011F8014B53
:1046700002F8014FF8E710BD30B500293CD051F8E1
:10468000042C0B1F1D49002AB8BF9B180A680C4652
:1046900012B95A600B6030BD93420DD21968581898
:1046A000904201BF5A5852181A60426823605A60FB
:1046B00030BD994203D80A4651680029F9D11468DF
:1046C00015199D420AD11B682344D01888421360F3
:1046D00012D10868034413604B680CE002D90C2324
:1046E000036030BD1C681819884201BF086849681A
:1046F000001918605960536030BD00BFA804002045
:1047000070B5CC1C24F0030408340C2C38BF0C24E6
:10471000002C064603DA0C233360002070BD8C4267
:10472000F9D3204A136810461946A1B10A68121B32
:104730000ED40B2A03D90A608B188C501FE08B42D1
:104740000BBF5A684A6802605A6018BF0B4616E0F1
:104750000B464968E9E7144D2B681BB9304600F059
:104760004BF828603046214600F046F8421C0346CC
:10477000D1D0C51C25F0030585420AD11C6003F188
:104780000B001A1D20F00700821A0AD051429950DE
:1047900070BD3046E91A00F02FF80130BBD02B462F
:1047A000ECE770BDA8040020A4040020F8B507467B
:1047B00015460E4621B91146BDE8F840FFF7A0BFE7
:1047C0001AB9FFF759FF2846F8BD00F025F8A842AE
:1047D0000ED238462946FFF793FF044650B13146C2
:1047E0002A46FFF723FF38463146FFF745FF01E031
:1047F0003046F8BD2046F8BD38B5064C00230546C6
:104800000846236000F012F8431C02D1236803B16C
:104810002B6038BD0008002051F8040C0028BEBFF2
:10482000091851F8043CC01804387047044A054977
:104830001368002B08BF0B461844106018467047D9
:10484000AC04002008080020F8B500BFF8BC08BC84
:104850009E467047F8B500BFF8BC08BC9E4670473E
:1048600002030405060708090A0B0C0D0E0F1010B1
:104870000102000002030405060708090A0B0C0DDB
:104880000E0F1010010200005372632F6D61696EEC
:104890002E63000044697665436D70005374617245
:1048A000742E2E00253032782E253032782E253089
:1048B000327820253032783A253032783A25303235
:1048C000782020200000000070726573732025306E
:1048D000366420202074656D7020253034640D0A04
:1048E00000000000253032783A253032783A253001
:1048F00032780000502025303664000054202530E6
:10490000346400005372632F6164632E63000000FF
:104910005372632F6932632E630000005372632F5A
:104920007274632E630000005372632F7370692EDC
:10493000630000005372632F74696D2E63000000E2
:104940005372632F75736172742E63000000000050
:104950000000000000000000000000000000000057
:104960000000000000000000000000000000000047
:104970000000000C000C000C000C000C000C000CE3
:10498000000C000C000C000C0000000C000C0000DF
:10499000000000000000001B001B001B001B001B90
:1049A0000000000000000000000000000000000007
:1049B000000000000000000000008019801980192C
:1049C0008019C07FC07F80190033C07FC07F003353
:1049D0000033003300330000000000000000001E20
:1049E000003F807580650074003C001E0007800554
:1049F000806580658075003F001E00040004000093
:104A00000000007000D840D8C0D880D900730006DC
:104A1000000C801BC036C066C046C0068003000084
:104A2000000000000000001E003F00330033003390
:104A3000001E000CC03CC066806380618063C03E85
:104A4000801C0000000000000000000C000C000CA6
:104A5000000C000C0000000000000000000000003E
:104A600000000000000000000000000080000001C5
:104A70000003000600060004000C000C000C000CF3
:104A8000000C000C0004000600060003000180007A
:104A9000002000100018000C000C000400060006A6
:104AA00000060006000600060004000C000C0018BA
:104AB000001000200000000C002D003F001E0033FD
:104AC00000000000000000000000000000000000E6
:104AD0000000000000000000000000000000000CCA
:104AE000000C000C000CC0FFC0FF000C000C000C00
:104AF000000C0000000000000000000000000000AA
:104B000000000000000000000000000000000000A5
:104B1000000000000000000C000C0004000400086D
:104B20000000000000000000000000000000000085
:104B30000000001E001E0000000000000000000039
:104B40000000000000000000000000000000000065
:104B50000000000000000000000000000000000C49
:104B6000000C000000000000000000030003000330
:104B70000006000600060006000C000C000C000CED
:104B80000018001800180000000000000000001EBF
:104B9000003F0033806180618061806D806D806145
:104BA000806180610033003F001E000000000000B3
:104BB00000000006000E001E00360026000600065B
:104BC00000060006000600060006000600060000BB
:104BD000000000000000001E003F807380618061C3
:104BE000800100030006000C001800300060807F88
:104BF000807F0000000000000000001C003E0063F9
:104C000000630003000E000E00038001800180613C
:104C10008073003F001E000000000000000000063E
:104C2000000E000E001E001E001600360036006644
:104C3000807F807F00060006000600000000000064
:104C40000000007F007F006000600060006E007F59
:104C500080638001800180618073003F001E00003E
:104C6000000000000000001E003F803380610060F3
:104C7000006E007F80738061806180618033003FBF
:104C8000001E0000000000000000807F807F800187
:104C90000003000300060006000C000C000C0008D6
:104CA0000018001800180000000000000000001E9E
:104CB000003F8063806180610021001E003F8061B1
:104CC000806180618061003F001E000000000000E4
:104CD0000000001E003F007380618061806180736E
:104CE000803F801D800180610073003F001E000036
:104CF0000000000000000000000000000000000CA8
:104D0000000C000000000000000000000000000C8B
:104D1000000C000000000000000000000000000087
:104D200000000000000C000C00000000000000006B
:104D30000000000C000C000400040008000000004B
:104D40000000000080008003000E00380060003882
:104D5000000E800380000000000000000000000042
:104D600000000000000000000000807F807F000045
:104D70000000807F807F0000000000000000000035
:104D80000000000000000000000000000040007073
:104D9000001C000780010007001C0070004000009C
:104DA00000000000000000000000001F803FC071F4
:104DB000C060C000C00180030007000E000C000CA2
:104DC0000000000C000C0000000000000000001EAD
:104DD000003F803180718063806F806D806D806F57
:104DE000806700600032003E001C000000000000F0
:104DF0000000000E000E001B001B001B001B80317A
:104E00008031803F803F8031C060C060C060000062
:104E1000000000000000007C007E0063006300636F
:104E20000063007E007E0063806180618063007F9C
:104E3000007E0000000000000000001E003F8031E6
:104E40008061006000600060006000600060806160
:104E50008031003F001E0000000000000000007CC8
:104E6000007F006380638061806180618061806118
:104E7000806100630063007E007C00000000000091
:104E80000000807F807F0060006000600060007F25
:104E9000007F0060006000600060807F807F000015
:104EA000000000000000807F807F006000600060E4
:104EB0000060007F007F00600060006000600060B4
:104EC00000600000000000000000001E003F803174
:104ED0008061006000600060806380638061806149
:104EE0008031803F001E0000000000000000806153
:104EF00080618061806180618061807F807F80616E
:104F0000806180618061806180610000000000003C
:104F10000000003F003F000C000C000C000C000CD7
:104F2000000C000C000C000C000C003F003F0000C7
:104F300000000000000080018001800180018001EC
:104F40008001800180018001806180618073003F69
:104F5000001E0000000000000000C06080610063CF
:104F600000660066006C0078007C006600660063E6
:104F700080618061C06000000000000000000060EF
:104F80000060006000600060006000600060006021
:104F9000006000600060807F807F000000000000F3
:104FA0000000C071C071C07BC07AC06AC06AC06EA8
:104FB000C064C060C060C060C060C060C06000000D
:104FC0000000000000008071807180798079807914
:104FD000806D806D806D806580678067806780638D
:104FE00080630000000000000000001E003F00334E
:104FF00080618061806180618061806180618061A9
:105000000033003F001E0000000000000000007E92
:10501000007F80638061806180618063007F007EAB
:1050200000600060006000600060000000000000A0
:105030000000001E003F003380618061806180615C
:1050400080618061806580670033803F401E000082
:10505000000000000000007E007F806380618061AE
:105060008063007F007E0066006300638061806172
:10507000C0600000000000000000000E001F803132
:10508000803100300038001E00078003806180619D
:105090008031003F001E0000000000000000C0FF43
:1050A000C0FF000C000C000C000C000C000C000CED
:1050B000000C000C000C000C000C000000000000B4
:1050C00000008061806180618061806180618061B9
:1050D00080618061806180618073003F001E0000FC
:1050E000000000000000C060C060C06080318031FE
:1050F0008031001B001B001B001B000E000E000E69
:1051000000040000000000000000C0C0C0C0C0C01B
:10511000C0C0C0C0C0CC804C804C805E80528052E9
:105120008073806180610000000000000000C0C04A
:10513000806080610033003B001E000C000C001EEC
:10514000001F003B80718061C0C0000000000000B3
:105150000000C0C08061806100330033001E001E6B
:10516000000C000C000C000C000C000C000C0000EB
:10517000000000000000803F803F8001000300032A
:105180000006000C000C0018001800300060807F42
:10519000807F000000000000000F000F000C000CDA
:1051A000000C000C000C000C000C000C000C000C9F
:1051B000000C000C000C000C000F000F0000001889
:1051C00000180018000C000C000C000C0006000673
:1051D00000060006000300030003000000000000BA
:1051E000001E001E0006000600060006000600065F
:1051F000000600060006000600060006000600067F
:10520000001E001E0000000C000C001E00120033E7
:105210000033806180610000000000000000000099
:10522000000000000000000000000000000000007E
:10523000000000000000000000000000000000006E
:105240000000000000000000E0FF00000000003847
:105250000018000C0000000000000000000000002A
:10526000000000000000000000000000000000003E
:1052700000000000000000000000001F803F80616F
:105280008001801F803F80618063807FC038000084
:105290000000000000000060006000600060006E20
:1052A000007F807380618061806180618073007F96
:1052B000006E000000000000000000000000000080
:1052C0000000001E003F807380610060006080610C
:1052D0008073003F001E00000000000000008001FD
:1052E000800180018001801D803F8073806180612A
:1052F000806180618073803F801D0000000000009D
:1053000000000000000000000000001E003F0073CD
:105310008061807F807F00608071003F001E000000
:10532000000000000000C007C00F000C000C807FD0
:10533000807F000C000C000C000C000C000C000C1A
:10534000000C000000000000000000000000000051
:10535000801D803F80738061806180618061807387
:10536000803F801D80018063007F003E0000006060
:10537000006000600060006F807F807180618061EC
:1053800080618061806180618061000000000000B8
:1053900000000006000600000000003E003E00067F
:1053A00000060006000600060006000600060000D3
:1053B000000000000006000600000000003E003E65
:1053C00000060006000600060006000600060006AD
:1053D00000060046007E003C0000006000600060A7
:1053E0000060806100630066006C007C00760063F2
:1053F00000638061C0600000000000000000003E0B
:10540000003E000600060006000600060006000634
:10541000000600060006000600060000000000006E
:105420000000000000000000000080DDC0FFC0CED2
:10543000C0CCC0CCC0CCC0CCC0CCC0CCC0CC000098
:105440000000000000000000000000000000006FED
:10545000807F807180618061806180618061806116
:10546000806100000000000000000000000000005B
:105470000000001E003F8073806180618061806158
:105480008073003F001E00000000000000000000CC
:1054900000000000006E007F807380618061806189
:1054A00080618073007F006E0060006000600060BB
:1054B0000000000000000000801D803F80738061BC
:1054C0008061806180618073803F801D80018001E8
:1054D0008001800100000000000000000000006763
:1054E000803F0039003000300030003000300030A4
:1054F000003000000000000000000000000000007C
:105500000000001E803F80610060007F803F8001BE
:105510008061007F001E000000000000000000000D
:10552000000800180018007F007F001800180018FD
:10553000001800180018801F800F000000000000F5
:1055400000000000000000000000806180618061B8
:1055500080618061806180618063807F803D000028
:105560000000000000000000000000000000C0601B
:10557000803180318031001B001B001B000E000EAB
:105580000006000000000000000000000000000015
:10559000000080DD80DD80DD00550055005500777E
:1055A0000077002200220000000000000000000040
:1055B000000000000000806100330033001E000C7A
:1055C000000C001E0033003380610000000000006A
:1055D0000000000000000000806180618031003325
:1055E0000033001B001B001B000E000E000E001CF1
:1055F000007C007000000000000000000000C07F80
:10560000C07F800100030006000C00180030C07F3E
:10561000C07F000000000000800380070006000635
:10562000000600060006000E001C001C000E00060E
:10563000000600060006000680078003000600063C
:10564000000600060006000600060006000600062A
:10565000000600060006000600060006000600061A
:105660000038003C000C000C000C000C000C000E7C
:1056700000070007000E000C000C000C000C000CD2
:10568000003C0038000000000000000000000000A6
:1056900000008038807F004700000000000000000C
:1056A00000000000000000000000000000000000FA
:1056B00000000000000000000000000000000000EA
:1056C00000000000000000000000000000000000DA
:1056D000000000000000000000000000E003E00304
:1056E000E003E003E003E003E003E003C003C003E2
:1056F000C001C001C001C001C001000000000000E5
:10570000E003E003E00300000000000000000000F0
:105710003C1E3C1E3C1E3C1E3C1E3C1E3C1E000013
:105720000000000000000000000000000000000079
:105730000000000000000000000000000000000069
:1057400000000000CE01CE03DE039E039C039C07F5
:10575000FF3FFF7F3807380F780F780F780EFFFF75
:10576000FFFFF01EF01CE01CE03CE03DE0390000D3
:105770000000000000000000FC03FE0FEE1FE01E12
:10578000E01EE01EE01EE01FE00FE007F003FC015A
:10579000FE01FE01FE01FE01FE01FE01FE3DFC3F99
:1057A000F00FE001E001000000000000033E07F7F9
:1057B0008FE78EE79EE3BCE3B8E7F8E7F0F7E03F5A
:1057C000C001FF03FF07F307F30FF31EF33CF338A9
:1057D000F3787FF03FE000000000000000000000D0
:1057E000E007F80F780F781F781F781F780FF00FF9
:1057F000E00F801FC37FC3FBE7F3F7F1F7F0FFF083
:105800007FF03EF87F7CFF3FEF1F000000000000AC
:1058100000000000E003E003E003E003E003C00356
:10582000C0010000000000000000000000000000B7
:105830000000000000000000000000000000000068
:1058400000000000000000003F007C00F001E001CB
:10585000C003C00780078007800F000F000F000FF4
:10586000000F000F000F800F80078007C007C003E4
:10587000E001F0017C003F000F000000007E001FEF
:10588000C007C003E001F001F000F000F80078006C
:1058900078007800780078007800F800F000F000D8
:1058A000F001E001C003C007001F007E0078000087
:1058B000E003C003C001CE39FF3F7F3F20037003E8
:1058C000F807780F3C1F38060000000000000000B9
:1058D00000000000000000000000000000000000C8
:1058E00000000000000000000000000000000000B8
:1058F000C001C001C001C001C001C001C001FFFF63
:10590000FFFFC001C001C001C001C001C001000013
:105910000000000000000000000000000000000087
:105920000000000000000000000000000000000077
:1059300000000000000000000000E003E003E003BE
:10594000E003E001E001E001C0018003000000008D
:105950000000000000000000000000000000000047
:105960000000FE3FFE3F00000000000000000000BD
:105970000000000000000000000000000000000027
:105980000000000000000000000000000000000017
:105990000000000000000000000000000000000007
:1059A0000000E003E003E003E0030000000000006B
:1059B000000000000F000F001E001E003C003C0015
:1059C00078007800F000F000E001E001C003C003BF
:1059D00080078007000F000F001E001E003C003CE7
:1059E0000078007800F00000F007F80F7C1F3E3EC2
:1059F0001E3C1F7C1F7C0F780F780F780F780F7874
:105A00000F780F781F7C1F7C1E3C3E3E7C1FF80FDA
:105A1000F00700000000000000000000F000F007A8
:105A2000F03FF03FF001F001F001F001F001F00172
:105A3000F001F001F001F001F001F001F001F001DE
:105A4000F001FF3FFF3F00000000000000000000E9
:105A5000E00FF83F7C3C3C003E003E003E003C0036
:105A60003C007C00F800F001E003C0078007000F55
:105A7000001E003E003CFE3FFE3F00000000000014
:105A800000000000F00FF81F7C1C3E003E003E00AE
:105A90003C003C00F800F00FF80F7C003E001E00B8
:105AA0001E001E001E003E007C1CF81FE01F0000B0
:105AB00000000000000000007800F800F800F80185
:105AC000F803F807F807780F781E781E783C787886
:105AD0007878FFFFFFFF7800780078007800780082
